5031922AEROLEP                                     aer.inhal.c/adap.x 250ds00047022NNAustral         00016676420220606002060074620107798160690096025010SNN00
9920061AVENO                                       acond.cap.x 250 ml      00000000NNAndr¢maco       00016490020220607001100092006107793742004353000110NNS00
9920683AVENO                                       emuls.x 250 ml          00000000NNAndr¢maco       00023430020220607001100092068307793742004377000110NNS00
9955343AVENO                                       emuls.x 400 ml          00000000NNAndr¢maco       00026900020220607001100095534307793742004391000130NNS00
9926260AVENO                                       gel de limp.x 250 ml    00000000NNAndr¢maco       00019260020220607001100092626007793742004346000110NNS00
9908730AVENO                                       jab.x 120 g             00000000NNAndr¢maco       00009000020220607001100090873007793742004384000110NNS00
9920062AVENO                                       shamp.x 250 ml          00000000NNAndr¢maco       00016490020220607001100092006207793742004360000110NNS00
9952646AVENO INFANTIL                              acond.x 250 ml          00000000NNAndr¢maco       00018640020220607001100095264607793742005442000110NNS00
9958131AVENO INFANTIL                              gel de ba¤o x 250 g     00000000NNAndr¢maco       00017840020220607001100095813107793742005473000110NNS00
9952645AVENO INFANTIL                              shamp.x 250 ml          00000000NNAndr¢maco       00018640020220607001100095264507793742005428000110NNS00
9923944BUSHI                                       Escudo p/formar pez¢n x200000000NNAndr¢maco       00017870020220607001100092394407793742004506000210NNS00
9923942BUSHI                                       Pezonera siliconada x 2 00000000NNAndr¢maco       00014150020220607001100092394207793742004308000210NNS00
9923940BUSHI CREMA                                 pomo x 100 g            00000000NNAndr¢maco       00012760020220607001100092394007793742004100000130NNS00
9923939BUSHI CREMA                                 pomo x 50 g             00000000NNAndr¢maco       00009110020220607001100092393907793742004018000110NNS00
9958768DERMAGLOS C HID + PROT F20                  emulsi¢n x 175 ml       00000000NNAndr¢maco       00016190020220607001100095876807793742007361000110NNS00
9928745DERMAGLOS C HID CR 175 GR                   cr.x 175 g              00000000NNAndr¢maco       00015850020220607001100092874507793742007323000110NNS00
9928746DERMAGLOS C HID EM 300 ML                   emuls.x 300 ml c/b      00000000NNAndr¢maco       00017670020220607001100092874607793742007569000110NNS00
9950067DERMAGLOS C HID INMEDIATA CR 175 GR         cr.x 175 g              00000000NNAndr¢maco       00015850020220607001100095006707793742007330000110NNS00
9957646DERMAGLOS C HID INMEDIATA CR 300 GR         cr.x 300 g              00000000NNAndr¢maco       00021100020220607001100095764607793742007378000110NNS00
9959119DERMAGLOS C HID INMEDIATA SPRAY 175 ML      emuls. x 175 g          00000000NNAndr¢maco       00016320020220607001100095911907793742007668000110NNS00
9955639DERMAGLOS C HID PROFUNDA CR 100 GR          cr.x 100 g              00000000NNAndr¢maco       00012720020220607001100095563907793742007767000110NNS00
9955640DERMAGLOS C HID PROFUNDA CR 200 GR          cr.x 200 g              00000000NNAndr¢maco       00019160020220607001100095564007793742007774000130NNS00
9943563DERMAGLOS C M Y U CR 120 GR                 cr.x 120 g              00000000NNAndr¢maco       00013870020220607001100094356307793742007927000130NNS00
9942298DERMAGLOS C M Y U CR 50 GR                  cr.x 50                 00000000NNAndr¢maco       00008710020220607001100094229807793742007910000110NNS00
9957921DERMAGLOS C PIEL DEL DIABETICO              crema x 100 g           00000000NNAndr¢maco       00017670020220607001100095792107793742007996000110NNS00
9957647DERMAGLOS C PIEL DEL DIABETICO              emulsi¢n x 300 ml       00000000NNAndr¢maco       00026710020220607001100095764707793742007972000130NNS00
9957920DERMAGLOS C PIEL DEL DIABETICO              emulsi¢n x 50 ml        00000000NNAndr¢maco       00010270020220607001100095792007793742007989000110NNS00
9955641DERMAGLOS C REGENERACION INT CR 100 GR      cr.x 100 g              00000000NNAndr¢maco       00015600020220607001100095564107793742007682000110NNS00
9955642DERMAGLOS C REGENERACION INT EM 300 ML      emul.x 300 ml           00000000NNAndr¢maco       00021100020220607001100095564207793742007675000110NNS00
9958835DERMAGLOS F AGUA MICELAR                    loci¢n x 200 ml         00000000NNAndr¢maco       00011220020220607001100095883507793742007415000110NNS00
9958497DERMAGLOS F BB CREAM                        tono claro cr.x 50 g    00000000NNAndr¢maco       00020990020220607001100095849707793742007958000110NNS00
9958498DERMAGLOS F BB CREAM                        tono medio cr.x 50 g    00000000NNAndr¢maco       00020990020220607001100095849807793742007965000110NNS00
9948245DERMAGLOS F CONTORNO OJOS CR 15 GR          cr.x 15 g               00000000NNAndr¢maco       00022010020220607001100094824507793742007613000110NNS00
9957922DERMAGLOS F DESMAQUILLANTE OJOS             loc.x 100 ml            00000000NNAndr¢maco       00011930020220607001100095792207793742005022000110NNS00
9950070DERMAGLOS F DESMAQUILLANTE OJOS             loc.x 120 ml            00000000NNAndr¢maco       00014110020220607001100095007007793742007590000130NNS00
9928743DERMAGLOS F HID F12 P NORMAL CR 50 GR       cr.x 50 g               00000000NNAndr¢maco       00009874120220607001100092874307793742007897000110NNS00
9928744DERMAGLOS F HID F12 P NORMAL EM 75 ML       emuls.x 75 ml           00000000NNAndr¢maco       00022000020220607001100092874407793742007903000110NNS00
9948048DERMAGLOS F HID F20 P NORMAL CR 70 GR       cr.x 70 g               00000000NNAndr¢maco       00022010020220607001100094804807793742002915000110NNS00
9948049DERMAGLOS F HID F20 P NORMAL EM 70 ML       emuls.x 70 ml           00000000NNAndr¢maco       00022010020220607001100094804907793742002922000110NNS00
9943529DERMAGLOS F HID P MIX A GRASA GL 70 GR      gel x 70 g              00000000NNAndr¢maco       00022010020220607001100094352907793742007606000110NNS00
9946389DERMAGLOS F HID P SECA CR 70 GR             cr.x 70 g               00000000NNAndr¢maco       00022010020220607001100094638907793742007637000110NNS00
9938255DERMAGLOS F LECHE LIMP 200 ML               leche x 200 ml          00000000NNAndr¢maco       00013420020220607001100093825507793742005008000110NNS00
9959117DERMAGLOS F LECHE LIMP 200 ML               leche x 200 ml          00000000NNAndr¢maco       00012460020220607001100095911707793742005039000110NNS00
9943528DERMAGLOS F LIMP P MIX A GRASA GL 150 GR    gel x 150 g             00000000NNAndr¢maco       00012470020220607001100094352807793742007583000110NNS00
9950842DERMAGLOS F LIMP P NORMAL GL 150 GR         gel x 150 g             00000000NNAndr¢maco       00012470020220607001100095084207793742007934000110NNS00
9950071DERMAGLOS F MAT P MIX A GRAS F30 CR 50 G    cr.x 50 g               00000000NNAndr¢maco       00022010020220607001100095007107793742007620000110NNS00
9930560DERMAGLOS F NUT P NORMAL CR 70 GR           cr.x 70 g               00000000NNAndr¢maco       00023210020220607001100093056007793742007576000110NNS00
9946388DERMAGLOS F NUT P SECA CR 50 GR             cr.x 50 g               00000000NNAndr¢maco       00023210020220607001100094638807793742007644000110NNS00
9952216DERMAGLOS F ROSACEA                         emulsi¢n x 50 ml        00000000NNAndr¢maco       00030280020220607001100095221607793742007309000110NNS00
9938254DERMAGLOS F TONICO HID 200 ML               t¢nico x 200 ml         00000000NNAndr¢maco       00013420020220607001100093825407793742005015000110NNS00
9959118DERMAGLOS F TONICO HID 200 ML               t¢nico x 200 ml         00000000NNAndr¢maco       00012480020220607001100095911807793742005046000110NNS00
9957642DERMAGLOS LINEA SOLAR                       F50 F.DermoTM cr. x 50 g00000000NNAndr¢maco       00018570020220607001100095764207793742004568000110NNS00
9957643DERMAGLOS LINEA SOLAR                       F50 Fac.c/color cr.x 50g00000000NNAndr¢maco       00018570020220607001100095764307793742004520000110NNS00
9959762DERMAGLOS LINEA SOLAR                       F50 Fac.s/color cr.x 50g00000000NNAndr¢maco       00018570020220607001100095976207793742004759000110NNS00
9952843DERMAGLOS LINEA SOLAR                       FPS 30 inv.spray x170ml 00000000NNAndr¢maco       00021270020220607001100095284307793742003592000110NNS00
9949624DERMAGLOS LINEA SOLAR                       FPS 30 invis.sprayx180ml00000000NNAndr¢maco       00019950020220607001100094962407793742003448000110NNS00
9951652DERMAGLOS LINEA SOLAR                       FPS 30 lapiz x 3.4 g    00000000NNAndr¢maco       00008190020220607001100095165207793742002687000110NNS00
9949625DERMAGLOS LINEA SOLAR                       FPS 40 cont.spray x170ml00000000NNAndr¢maco       00021680020220607001100094962507793742003554000110NNS00
9951650DERMAGLOS LINEA SOLAR                       FPS 50 beb‚s cr.x 150 g 00000000NNAndr¢maco       00015860020220607001100095165007793742033759000110NNS00
9955559DERMAGLOS LINEA SOLAR                       FPS 50 beb‚s cr.x 50 g  00000000NNAndr¢maco       00006200020220607001100095555907793742003998000110NNS00
9954414DERMAGLOS LINEA SOLAR                       FPS 50 spray cont.x170ml00000000NNAndr¢maco       00022110020220607001100095441407793742003776000110NNS00
9924249DERMAGLOS LINEA SOLAR                       FPS 65 RA crema x 90g   00000000NNAndr¢maco       00019920020220607001100092424907793742003264000110NNS00
9958836DERMAGLOS LINEA SOLAR                       FPS 65 beb‚s cr.x 120 g 00000000NNAndr¢maco       00014750020220607001100095883607793742004650000110NNS00
9957644DERMAGLOS LINEA SOLAR                       FPS 65 beb‚s cr.x 50 g  00000000NNAndr¢maco       00007190020220607001100095764407793742003660000110NNS00
9949623DERMAGLOS LINEA SOLAR                       FPS 80 cr.x 90 g        00000000NNAndr¢maco       00020980020220607001100094962307793742003707000110NNS00
9957641DERMAGLOS LINEA SOLAR                       FPS15 RA emulsi¢n x250ml00000000NNAndr¢maco       00017090020220607001100095764107793742003486000110NNS00
9936874DERMAGLOS LINEA SOLAR                       FPS20 RA emulsi¢n x250ml00000000NNAndr¢maco       00017110020220607001100093687407793742003493000110NNS00
9939377DERMAGLOS LINEA SOLAR                       FPS30 Barra protec.x 14g00000000NNAndr¢maco       00011770020220607001100093937707793742002670000110NNS00
9936875DERMAGLOS LINEA SOLAR                       FPS30 RA emulsi¢n x250ml00000000NNAndr¢maco       00017550020220607001100093687507793742003509000110NNS00
9955558DERMAGLOS LINEA SOLAR                       FPS30 efecto seco x 180g00000000NNAndr¢maco       00016480020220607001100095555807793742003813000110NNS00
9955560DERMAGLOS LINEA SOLAR                       FPS30 emuls.pomo x 50 ml00000000NNAndr¢maco       00005150020220607001100095556007793742003677000110NNS00
9951651DERMAGLOS LINEA SOLAR                       FPS40 efecto seco x 180g00000000NNAndr¢maco       00017540020220607001100095165107793742003806000110NNS00
9957645DERMAGLOS LINEA SOLAR                       FPS40 emulsi¢n x 120 ml 00000000NNAndr¢maco       00009480020220607001100095764507793742004575000110NNS00
9954417DERMAGLOS LINEA SOLAR                       FPS40 emulsi¢n x 380 ml 00000000NNAndr¢maco       00019450020220607001100095441707793742043512000150NNS00
9936876DERMAGLOS LINEA SOLAR                       FPS40 emulsi¢n x250ml   00000000NNAndr¢maco       00018280020220607001100093687607793742003516000120NNS00
9953796DERMAGLOS LINEA SOLAR                       FPS50 RA emulsi¢n x 50ml00000000NNAndr¢maco       00005150020220607001100095379607793742004513000110NNS00
9948244DERMAGLOS LINEA SOLAR                       FPS50 RA emulsi¢n x250ml00000000NNAndr¢maco       00018940020220607001100094824407793742003431000130NNS00
9955561DERMAGLOS LINEA SOLAR                       FPS50 ni¤o emuls.x180 ml00000000NNAndr¢maco       00017630020220607001100095556107793742003790000110NNS00
9954419DERMAGLOS LINEA SOLAR                       FPS50 ni¤o spray x170 ml00000000NNAndr¢maco       00021930020220607001100095441907793742003738000110NNS00
9954415DERMAGLOS LINEA SOLAR                       Post solar emuls.x 300ml00000000NNAndr¢maco       00017780020220607001100095441507793742003974000110NNS00
9924236DERMAGLOS LINEA SOLAR                       Post solar gel x 150 g  00000000NNAndr¢maco       00013070020220607001100092423607793742003233000110NNS00
9954416DERMAGLOS LINEA SOLAR                       Post solar gel x 300ml  00000000NNAndr¢maco       00019360020220607001100095441607793742003967000110NNS00
9958837DERMAGLOS LINEA SOLAR                       Post solar gel x 50 g   00000000NNAndr¢maco       00005660020220607001100095883707793742004643000110NNS00
9957639DERMAGLOS LINEA SOLAR (PROMOCIONAL)         FPS 50 beb‚s cr.x 180 g 00000000NNAndr¢maco       00015860020220607001100095763907793742003752000110NNS00
9957638DERMAGLOS LINEA SOLAR (PROMOCIONAL)         FPS30 emuls.fr. x 380 ml00000000NNAndr¢maco       00018670020220607001100095763807793742032615000110NNS00
9957640DERMAGLOS LINEA SOLAR (PROMOCIONAL)         FPS50 RA emulsi¢n x380ml00000000NNAndr¢maco       00020150020220607001100095764007793742023439000110NNS00
9958499DERMAGLOS ULTRA F CC CREAM                  tono medio cr.x 50 g    00000000NNAndr¢maco       00029090020220607001100095849907793742007422000110NNS00
9953787DERMAGLOS ULTRA F CONTORNO +30              F30 cr.x 15 g           00000000NNAndr¢maco       00034700020220607001100095378707793742007507000110NNS00
9953788DERMAGLOS ULTRA F CONTORNO +50              F50 cr.x 15 g           00000000NNAndr¢maco       00034700020220607001100095378807793742007521000110NNS00
9953789DERMAGLOS ULTRA F DIA +30                   F30 cr.x 50 g           00000000NNAndr¢maco       00037160020220607001100095378907793742007545000110NNS00
9953790DERMAGLOS ULTRA F DIA +50                   F50 cr.x 50 g           00000000NNAndr¢maco       00037160020220607001100095379007793742007552000110NNS00
9953791DERMAGLOS ULTRA F NOCHE +30                 F30 cr.x 50 g           00000000NNAndr¢maco       00038730020220607001100095379107793742007705000110NNS00
9953792DERMAGLOS ULTRA F NOCHE +50                 F50 cr.x 50 g           00000000NNAndr¢maco       00038730020220607001100095379207793742007699000110NNS00
9909560HIDROSAM                                    gel cr.x 50 g           00000000NNAndr¢maco       00023740020220607001100090956007793742000911000110NNS00
9909561HIDROSAM                                    shamp.gel x 250 ml      00000000NNAndr¢maco       00021650020220607001100090956107793742000904000130NNS00
9959761HIDROSAM SHAMPOO                            env. x 250 ml           00000000NNAndr¢maco       00021650020220607001100095976107793742000997000110NNS00
9958578HIPOGLOS CUIDADO DIARIO                     crema x 30 g            00000000NNAndr¢maco       00008400020220607001100095857807793742002984000110NNS00
9958579HIPOGLOS CUIDADO DIARIO                     crema x 90 g            00000000NNAndr¢maco       00019930020220607001100095857907793742002991000130NNS00
9950963HIPOGLOS CUIDADO DIARIO                     pda.x 30 g              00000000NNAndr¢maco       00008420020220607001100095096307793742002014000110NNS00
9957637HIPOGLOS CUIDADO DIARIO                     pda.x 90 g              00000000NNAndr¢maco       00019980020220607001100095763707793742003011000130NNS00
9950964HIPOGLOS CUIDADO DIARIO (PROMOCIONAL)       pda.x 40 g              00000000NNAndr¢maco       00008420020220607001100095096407793742002021000110NNS00
9936630PRURISEDAN                                  cr.rosa x 30 g          00000000NNAndr¢maco       00006620020220607001100093663007793742005985000110NNN00
9931374PRURISEDAN                                  loc.incoloro x 60 ml    00000000NNAndr¢maco       00008000020220607001100093137407793742005992000110NNN00
0668226DEVISAL CB 50000                            c ps.bl.x 2             00000000NNBaliarda        00013300020220606002000235987007795338999784000210NNN00
0615997DILCORAN                                    160 mg comp.rec.x 30    00000000NNCasasco         00034583720220603002000455986007791909180223003020NNN00
4905902AERIUS                                      5 mg comp.rec.x 10      00018696NNOrganon Arg.    00019552820220601012021722880907793081012217001010SNN00
4905905AERIUS                                      5 mg comp.rec.x 30      00063156NNOrganon Arg.    00048201920220601012021722881007793081012224003030SNN00
5095332ARCOXIA                                     120 mg comp.rec.x 7     00041896NNOrganon Arg.    00021816720220601012021723692107797991146130000710SNN00
5095123ARCOXIA                                     60 mg comp.rec.x 28     00096029NNOrganon Arg.    00044193720220601012021723399307797991146918002810SNN00
5095281ARCOXIA                                     90 mg comp.rec.x 14     00073534NNOrganon Arg.    00036183820220601012021723190607797991146772001410SNN00
5095282ARCOXIA                                     90 mg comp.rec.x 28     00116668NNOrganon Arg.    00054749020220601012021723399407797991146925002830SNN00
1183242CELESTONE                                   liq.x 15 ml             00023758NNOrganon Arg.    00011828120220601002021721122607793081023343000110SNN00
1183662CELESTONE CRONODOSE                         f.a.x 1 x 2 ml          00031042NNOrganon Arg.    00012810720220601012021725727907793081098440000110NNN00
4890641CERAZETTE                                   comp.rec.x 28           00000000ENOrganon Arg.    00025285920220601012021722887907795318001230002810NNN00
3036521CO-RENITEC                                  10/25 mg comp.x 20      00000000NNOrganon Arg.    00011281320220601002061720313507797991144501002010SNN00
3036523CO-RENITEC                                  10/25 mg comp.x 60      00000000NNOrganon Arg.    00031824220220601002061720313607797991144518006030SNN00
3042543CO-RENITEC                                  20/12.5 mg comp.x 60    00000000NNOrganon Arg.    00035078820220601002061720330707797991145560006010SNN00
5047491COZAAREX                                    100 mg comp.x 30        00103029NNOrganon Arg.    00042628020220601012061723130807797991146802003010SNN00
4003672COZAAREX                                    50 mg comp.x 30         00074832NNOrganon Arg.    00032186720220601012061723033807797991146703003010SNN00
5604391COZAAREX D                                  100/12.5 mg comp.x 30   00000000NNOrganon Arg.    00037179320220601012081723970507797991150090003010SNN00
4772172COZAAREX D                                  100/25 mg comp.x 30     00000000NNOrganon Arg.    00046665020220601012081722839707797991065967003010SNN00
4123622COZAAREX D                                  50/12.5 mg comp.x 30    00000000NNOrganon Arg.    00041451320220601012081723128307797991146710003010SNN00
0508652DIPROGENTA                                  cr.x 20 g               00000000NNOrganon Arg.    00016267520220601002021720306807793081045260000110SNN00
2180253DIPROSONE                                   cr.x 15 g               00009964NNOrganon Arg.    00016712720220601002021720307307793081043532000110SNN00
2417112DIPROSONE                                   loc.x 30 ml             00049644NNOrganon Arg.    00022653820220601002021720307507793081043617000110NNN00
3328093ELOCON                                      loc.x 30 ml             00037502NNOrganon Arg.    00031365220220601002021721502807793081044607000110SNN00
3327922ELOCON CREMA                                pomo x 15 g             00027695NNOrganon Arg.    00022522320220601002021721123007793081044546000110SNN00
6043551ELONVA                                      100 mcg jga.prell.x 1   00000000NNOrganon Arg.    01581926720220601012001724906907795318000066000111SNN00
6043681ELONVA                                      150 mcg jga.prell.x 1   00000000NNOrganon Arg.    01581926720220601012001724907007795318000073000111SNN00
5126193EZETROL                                     10 mg comp.x 30         00073925NNOrganon Arg.    00036715920220601012021723585707797991114825003010SNN00
3676903FELBAMYL                                    600 mg comp.x 40        00000000NNOrganon Arg.    00068096220220601A03061723843807793081048339004030SNN00
3677075FELBAMYL                                    600 mg/5 ml susp.x 230ml00000000NNOrganon Arg.    00078782020220601A03061722217807793081048353000110SNN00
6099391IMPLANON NXT                                implante x 1            00000000NNOrganon Arg.    00335765520220601012001724801407795318000097000110NNN00
2663891LERIVON                                     30 mg comp.x 30         00000000NNOrganon Arg.    00018868420220601403021720618907795318001018003010SNN00
2997781LOTRICOMB                                   cr.x 30 g               00000000NNOrganon Arg.    00017473420220601002021720956807793081057805000110SNN00
2817251MARVELON                                    comp.x 21               00000000ENOrganon Arg.    00020224620220601002021720619107795318000295002110NNN00
3929281MERCILON                                    comp.x 21               00000000ENOrganon Arg.    00020224620220601002021721588307795318001049002110NNN00
4302652NASONEX                                     Nas.spray acuoso x140ds.00280330NNOrganon Arg.    00045261520220601012021722859007793081050974014010SNN00
4302653NASONEX MINI                                Nas.spray acuoso x 60ds.00052338NNOrganon Arg.    00027447220220601012021723371207793081050998006010SNN00
3814343NOVASONE                                    cr.x 15 g               00027695NNOrganon Arg.    00023873320220601002021721490507793081066906000110SNN00
5129771NUVARING                                    anillo vaginal sob.x 1  00000000NNOrganon Arg.    00040108420220601012001724566507795318001438000111NNN00
4869451ORGALUTRAN                                  jga.prell.x 1 x 0.5 ml  00000000NNOrganon Arg.    00097979520220601012001722980407795318001261000110SNN00
4386231PROPECIA                                    1 mg comp.rec.x 30      00000000NNOrganon Arg.    00058727920220601012021722121607797991065974003010SNN00
3508012PROSCAR                                     comp.x 30               00116725NNOrganon Arg.    00054127220220601002021721184507797991145652003010SNN00
4977241PUREGON SOLUCION                            300 UI cart.x 0.36 ml   00000000NNOrganon Arg.    00364101420220601012001723267507795318001285000110SNN00
4977311PUREGON SOLUCION                            600 UI cart.x 0.72 ml   00000000NNOrganon Arg.    00728205220220601012001723267607795318001292000110SNN00
3103184QUADRIDERM                                  cr.x 10 g               00000000NNOrganon Arg.    00008184220220601002021723348307793081082173000110SNN00
3103185QUADRIDERM                                  cr.x 20 g               00000000NNOrganon Arg.    00021863720220601002021723348407793081082197000130SNN00
4066041REMERON                                     30 mg comp.x 30         00000000NNOrganon Arg.    00075909020220601413021721866207795318001063003030SNN00
2922931RENITEC                                     10 mg comp.x 30         00037136NNOrganon Arg.    00009211120220601002061720540107797991145706003010SNN00
2922932RENITEC                                     10 mg comp.x 60         00070923NNOrganon Arg.    00019409020220601002061720540207797991145713006030SNN00
2923001RENITEC                                     20 mg comp.x 30         00045655NNOrganon Arg.    00011829920220601002061720540307797991145720003010SNN00
2923002RENITEC                                     20 mg comp.x 60         00090481NNOrganon Arg.    00022962920220601002061720540407797991145737006030SNN00
3061272RENITEC                                     5 mg comp.x 60          00044484NNOrganon Arg.    00009383620220601002061720875607797991145690006010SNN00
4402301SINGULAIR                                   10 mg comp.x 30         00157013NNOrganon Arg.    00043556320220601012021722203707797991065585003010SNN00
4820843SINGULAIR                                   Ni¤os 4 mg comp.mast.x3000144434NNOrganon Arg.    00044642620220601012021722714407797991066285003010SNN00
5224871SINGULAIR                                   Ni¤os 4 mg gran.sob.x 3000144434NNOrganon Arg.    00037853720220601012021723386007797991146895003010SNN00
4402481SINGULAIR                                   Ni¤os 5 mg comp.mast.x3000152346NNOrganon Arg.    00045075720220601012021722156407797991065431003010SNN00
5296953VYTORIN                                     10/10 mg comp.x 30      00000000NNOrganon Arg.    00031929120220601012021723581407797991114788003010SNN00
5297083VYTORIN                                     10/20 mg comp.x 30      00000000NNOrganon Arg.    00031929120220601012021723581507797991114795003030SNN00
5297133VYTORIN                                     10/40 mg comp.x 30      00000000NNOrganon Arg.    00039472720220601012021723581607797991114801003030SNN00
5127686ZETIA                                       10 mg comp.x 28         00173088NNOrganon Arg.    00038952220220601012021723342807793081094749002810SNN00
3179423ZOCOR                                       10 mg comp.x 30         00081181NNOrganon Arg.    00025665520220601002061721039807797991145782003010SNN00
3179503ZOCOR                                       20 mg comp.x 30         00105162NNOrganon Arg.    00029963420220601002061721818207797991144433003010SNN00
3179684ZOCOR                                       40 mg comp.x 30         00130710NNOrganon Arg.    00035843720220601002061722253107797991146529003010SNN00
4582091ACIDO FOLICO RICHMOND                       1 mg comp.x 60          00050465NNRichmond        00010879320220607002001945267207795348002795006010NNN00
4582251ACIDO FOLICO RICHMOND                       5 mg comp.x 60          00066120NNRichmond        00019977520220607002001945267307795348002818006010NNN00
6272001BEMUX                                       100 mg f.a.liof.x 1     00000000NNRichmond        01507022620220607003001945039907795348002191000110NNN00
6271971BEMUX                                       25 mg f.a.liof.x 1      00000000NNRichmond        00472250220220607003001945039807795348002184000110NNN00
5150008CAPECIT                                     500 mg comp.x 120       00000000NNRichmond        00792973720220607003001944168407795348251056012010NNN00
4063491CIGANCLOR                                   500 mg f.a.x 1          00000000NNRichmond        00038474320220607003001942131407795348002382000110NNN00
9923086DOXETAL                                     20 mg f.a.x 1+disolv.x 100000000NNRichmond        00192660520220607002001942308607795348002962000111NNN00
9953068DOXETAL                                     20 mg/1 ml iny.f.a.x 1  00000000NNRichmond        00192660520220607002001945306807795348002924000111NNN00
4543641DOXETAL                                     80 mg f.a.x 1+disolv.x 100000000NNRichmond        00770508620220607002001942308707795348002955000111NNN00
9952320DOXETAL                                     80 mg/4 ml f.a.x 1      00000000NNRichmond        00770508620220607002001945232007795348002931000111NNN00
4019193DRIFEN                                      150 mg f.a.x 25 ml      00000000NNRichmond        00719472620220607003001942096107795348002580000111NNN00
4019191DRIFEN                                      30 mg f.a.x 5 ml        00000000NNRichmond        00143303920220607003001941865807795348001583000111NNN00
9955140EGIDON                                      3.5 mg f.a.liof.x1      00000000NNRichmond        02460151920220607003001945514007795348421091000110NNN00
3955681ESPASEVIT                                   8 mg a.x 1 x 4 ml       00000000NNRichmond        00028349620220607002001941633007795348001118000110NNN00
9955065ESPASEVIT                                   8 mg a.x 25 x 4 ml      00000000NNRichmond        00708746020220607002001945506507795348000890002590NNN00
5067183FOLAPORT                                    250/0.5 mg comp.x 60    00000000NNRichmond        00020509520220607002001945040607795348002221006010SNN00
6036682FONTRAX                                     100 mg comp.rec.x 30    00000000NNRichmond        03429091120220607003001944751707795348000159003010NNN00
6036422FONTRAX                                     50 mg comp.rec.x 60     00000000NNRichmond        03429091120220607003001944751607795348000142006010NNN00
5327131GEZT                                        1 g f.a.x 1             00000000NNRichmond        00381270620220607003001943638607795348250370000110NNN00
4544891GEZT                                        200 mg f.a.x 1          00000000NNRichmond        00079318920220607003001943638507795348250387000110NNN00
3365201HEPARINA SODICA RICHMOND                    5000 UI f.a.x 100 x 5 ml00000000NNRichmond        01329183420220607002001941077207795348050123010090NNN00
0665955INIBCO                                      200 mg comp.x 30        00000000NNRichmond        01364178820220607002001945926107795348424412003010NNN00
0665942INIBCO                                      400 mg comp.x 30        00000000NNRichmond        02753160820220607002001945926207795348424429003010NNN00
5602396LAZINEVIR                                   comp.rec.x 60           00000000NNRichmond        00342087320220607002001943996607795348250943006010NNN00
5920263LEUZAN                                      comp.rec.x 30           00000000NNRichmond        00244883620220607003001944497207795348251223003010NNN00
6546971LIMUSTAC 15 MG                              comp.rec.x 20           00000000NNRichmond        02020106520220607003001945594007795348421718002010NNN00
6546972LIMUSTAC 15 MG                              comp.rec.x 60           00000000NNRichmond        05989263020220607003001945594107795348421732006030NNN00
6547001LIMUSTAC 20 MG                              comp.rec.x 20           00000000NNRichmond        02020106520220607003001945594207795348421725002010NNN00
6547002LIMUSTAC 20 MG                              comp.rec.x 60           00000000NNRichmond        05989263020220607003001945594307795348421749006030NNN00
6105001MIVUTEN                                     comp.rec.x 30           00000000NNRichmond        00401701720220607003001944722607795348000326003010NNN00
6213715MONOFER                                     100 mg/ml f.a.x 1 x 10ml00000000NNRichmond        00430974820220607012001944959707795348001521000130NNN00
6213716MONOFER                                     100 mg/ml f.a.x 1 x 5 ml00000000NNRichmond        00215486920220607012001945258007795348001514000110NNN00
6113682OMACOR                                      caps.blandas x 28       00000000NNRichmond        00049673620220602012021944807717798047984119002810SNN00
4354211OMILIPIS                                    150 mg iny.liof.f.a.x 1 00000000NNRichmond        00145000220220607003001942196807795348002771000110NNN00
4354391OMILIPIS                                    450 mg iny.liof.f.a.x 1 00000000NNRichmond        00408661420220607003001942196907795348002788000110NNN00
4661112PIPETECAN                                   100 mg iny.f.a.x 5 ml   00000000NNRichmond        00430458020220607003001942683307795348003082000110NNN00
6521971PREVID                                      200/25 mg comp.rec.x 30 00000000NNRichmond        00430603620220607003001945584407795348421602003010NNN00
6372551PROBIRASE                                   comp.rec.x 28           00000000NNRichmond        03988796820220607003001945194307795348002979002810NNN00
4856246PROTEASE                                    200 mg comp.x 60        00000000NNRichmond        00143034320220607002001942837507795348003419006010NNN00
9954299REGIOCAINA JALEA                            pomo x 25 ml caja x 20  00000000NNRichmond        00074925620220607002001945429907795348000968002090NNN00
5989002REMIFLO                                     5 mg iny.liof.f.a.x 5   00000000NNRichmond        00068109320220607604001944587307795348000081000590NNN00
0640413REXINTH                                     250 mg comp.rec.x 120   00000000NNRichmond        04393888720220607003001945329107795348003013012010NNN00
4019691ROXORIN                                     10 mg liof.f.a.x 1      00000000NNRichmond        00018654320220607003001941617507795348001217000110NNN00
4019774ROXORIN                                     50 mg liof.f.a.x 1      00000000NNRichmond        00080256120220607003001941617607795348002900000110NNN00
6054841SELMIVIR                                    comp.rec.x 30           00000000NNRichmond        00327754620220607002001944654907795348000258003010NNN00
4342673TAMBUX                                      150 mg caps.x 30        00000000NNRichmond        00088037020220607003001944657607795348415632003010SNN00
4164211TEICOX                                      400 mg liof.f.a.x 1+solv00351657ANRichmond        00062446020220607003001942683207795348003068000160NNN00
6064421TIZOXIM                                     50 mg f.a.liof.x 10     02158680SNRichmond        00507538220220607003001944817107795348000371001090NNN00
9954280TRACURIX                                    50 mg a.x 25 x 5 ml     00000000NNRichmond        00284654020220607002001945428007795348250431002590NNN00
5832001TREXAM                                      500 mg f.a.x 1          00000000NNRichmond        02182547020220607002001944443207795348251179000110NNN00
6287841TRINOMIA                                    100/40/10 mg c ps.x 28  00000000NNRichmond        00059859120220602012021945039717798047980036002810SNN00
6287711TRINOMIA                                    100/40/5 mg c ps.x 28   00000000NNRichmond        00051127420220602012021945039617798047980043002810SNN00
9953547TRIVENZ                                     comp.rec.x 30           00000000NNRichmond        00652765220220607003001945354707795348003242003010NNN00
5858712VELTAMIR                                    caps.x 10               00000000NNRichmond        00009694920220607002001944381707795348424832001010NNN00
6240711VIRONTAR                                    comp.rec.x 60           00000000NNRichmond        01017071120220607003001944908307795348001705006010NNN00
6351971VIRONTAR N                                  comp.rec.y ran.x 30     00000000NNRichmond        00576397820220607003001945144907795348002825003010NNN00
5265323VIRORREVER 600                              600 mg comp.x 30        00000000NNRichmond        00290334620220607003001943449807795348250189003010NNN00
6101971VUCLODIR                                    300 mg comp.x 30        00000000NNRichmond        00086333220220607003001944743907795348000357003010NNN00
4487211XALIPLAT                                    100 mg f.a.x 1          00000000NNRichmond        00596769820220607003001942228807795348002856000110NNN00
4487131XALIPLAT                                    50 mg f.a.x 1           00000000NNRichmond        00298386920220607003001942228707795348002863000110NNN00
4665176ZETAVUDIN                                   comp.rec.x 60           00000000NNRichmond        00174903220220607003001942558307795348003037006010NNN00
4124613ZETROTAX RICHMOND                           10 mg/ml jbe.x 240 ml   00000000NNRichmond        00021254720220607003001941962307795348001859000110NNN00
6556551ZEVUVIR                                     50 mg comp.rec.x 30     00000000NNRichmond        00478978920220607003001945614807795348421831003010NNN00
6605711ZEVUVIR ABC PACK                            comp.rec.x 30+30        00000000NNRichmond        00806733720220607003001945831507795348423354006010NNN00
6605681ZEVUVIR L PACK                              comp.rec.x 30+30        00000000NNRichmond        00478978920220607003001945762107795348423446006010NNN00
5522425ZIATIR                                      100 mg comp.rec.x 180   00000000NNRichmond        04020319620220607002001944587107795348250844018010NNN00
5522553ZIATIR                                      400 mg comp.rec.x 30    00000000NNRichmond        02672863720220607002001944587207795348250851003010NNN00
9958954ZUTRAB                                      100 mg/4 ml a.x 1       00000000NNRichmond        01259710320220607003001945895407795348424498000111NNN00
9958955ZUTRAB                                      400 mg/16 ml a.x 1      00000000NNRichmond        04590971820220607003001945895507795348424504000131NNN00
6373421ADEMPAS                                     1.0 mg comp.x 42        00000000NNBayer (PH)      05480362820220607012002145240607795320000603004210NNN00
6373551ADEMPAS                                     1.5 mg comp.x 42        00000000NNBayer (PH)      05480362820220607012002145240707795320000610004210NNN00
6373682ADEMPAS                                     2.0 mg comp.x 84        00000000NNBayer (PH)      10960725620220607012002145241107795320000658008410NNN00
6373712ADEMPAS                                     2.5 mg comp.x 84        00000000NNBayer (PH)      10960725620220607012002145241207795320000665008410NNN00
5334971ANGELIQ                                     comp.rec.x 28           00000000NNBayer (PH)      00026474520220607012002143668407795320051001002810SNN00
5695391ASPIRINA PREVENT                            comp.cub.enterica x 20  00010116NNBayer (PH)      00002449020220607002082144150207793640232254002010SNN00
5695392ASPIRINA PREVENT                            comp.cub.enterica x 50  00031553NNBayer (PH)      00005346920220607002082144150307793640232261005020SNN00
5905001ASPIRINA PREVENT 325                        comp.cub.enterica x 30  00029322NNBayer (PH)      00005217420220607002082144487807793640000938003010SNN00
5905002ASPIRINA PREVENT 325                        comp.cub.enterica x 60  00052218NNBayer (PH)      00009291320220607002082144487907793640000945006030SNN00
4629951AVELOX                                      400 mg comp.rec.x 5     00000000NNBayer (PH)      00020347520220607013062142569107793640233381000510SNN00
4629952AVELOX                                      400 mg comp.rec.x 7     00000000NNBayer (PH)      00042558920220607013062142644407793640002512000730SNN00
5819421AVELOX I.V.                                 400 mg sol.p/inf.x 250ml00000000NNBayer (PH)      00033119220220607012062144381207793640002475000110NNN00
4139064BETAFERON                                   15 env.indiv.+kit c/jga.00000000NNBayer (PH)      06070992620220607013002144367007795320051124001510NNN00
6390261BLUSIRI                                     Disp.intrauterino x 1   00000000NNBayer (PH)      00377981320220607012002145314107795320000566000110NNN00
2215151CICLOCUR                                    blist.grag.x 21         00000000NNBayer (PH)      00015604620220607002022140826207896116865540002110SNN00
4352731CIPRO                                       50 mg/ml susp.x 100 ml  00169229NNBayer (PH)      00072049220220607013082142376807793640235972000110SNN00
3036601DIANE 35                                    blist.grag.x 21         00000000NNBayer (PH)      00016395620220607002002140066107795320010510002110NNN00
6233001EYLIA                                       40 mg/ml vial x 1       00000000NNBayer (PH)      02693017620220607013002145241307795320000320000110NNN00
4174111FEMIANE                                     grag.x 21               00000000ENBayer (PH)      00013198120220607002002141873507795320000870002110NNN00
3072401GYNOVIN                                     blist.grag.x 21         00000000ENBayer (PH)      00013872720220607002002140752607795320018318002110NNN00
5011131KOGENATE FS                                 1000 UI iny.x 1         00000000NNBayer (PH)      01187978020220607012002144264307793640215653000110NNN00
5011081KOGENATE FS                                 500 UI iny.x 1          00000000NNBayer (PH)      00593924120220607012002144264207793640215646000110NNN00
9959630KOVALTRY                                    1000 UI f.a. x 1        00000000NNBayer (PH)      01363311220220607012002145963007795320053302000111NNN00
9959631KOVALTRY                                    500 UI f.a. x 1         00000000NNBayer (PH)      00681655520220607012002145963107795320053296000111NNN00
6572261KYLEENA                                     Disp.intrauterino x 1   00000000NNBayer (PH)      00377981320220607012002145852707795320052145000110NNN00
0145062LUMINAL                                     comp.x 60               00077391NNBayer (PH)      00021454520220607303062141747707793640237402006010SNN00
0115441LUMINALETAS                                 comp.x 30               00031441NNBayer (PH)      00008672520220607303062140121107793640000464003010SNN00
3299631MESIGYNA                                    iny.IM a.x 1 ml         00000000ENBayer (PH)      00007757020220607002022141478507795320034912000110NNN00
2365721MICROGYNON                                  blist.grag.x 21         00000000ENBayer (PH)      00008692520220607002022140828807795320004410002110NNN00
4452481MICROLUT                                    grag.x 35               00000000ENBayer (PH)      00013753820220607012002142309607795320050417003510NNN00
3741321MICROVLAR                                   grag.x 21               00000000ENBayer (PH)      00006122520220607002022141369807795320041811002110NNN00
4458841MIRANOVA                                    grag.x 21               00000000ENBayer (PH)      00005022820220607012022142330107795320050431002110NNN00
4683151MIRENA                                      Disp.intrauterino x 1   00000000NNBayer (PH)      00377981320220607012002144642307501303451528000110NNN00
3111761MUPATEN VAGINAL                             600 mg blist.ov.x 1     00000000NNBayer (PH)      00012396020220607002022140278407501303436501000110SNN00
2793901MUPATEN VAGINAL                             cr.x 40 g               00000000NNBayer (PH)      00010754520220607002022140829207795320004816000110SNN00
5361972NEBIDO                                      1000 mg vial x 1 x 4 ml 00362004NNBayer (PH)      00154123420220607A13022145678207795320052084000110NNN00
5361971NEBIDO                                      iny.sol.a.x 1 x 4 ml    00362004NNBayer (PH)      00154123420220607A13002143781207703331510837000110SNN00
5541001NEXAVAR                                     200 mg comp.x 112       00000000NNBayer (PH)      11297312220220607013002145240407793640215585011210NNN00
9959164NUBEQA                                      300 mg comp.rec. x 112  00000000NNBayer (PH)      10986591520220607013002145916407795320053357011210NNN00
6128551PRIMOLUT NOR                                10 mg blist.comp.x 20   00070814NNBayer (PH)      00030149220220607012022145131707896116865991002010SNN00
0986751PRIMOSISTON                                 IM iny.a.x 1 ml         00000000NNBayer (PH)      00013010820220607002022140830407501303430509000110SNN00
0989481PRIMOSISTON                                 comp.x 30               00000000NNBayer (PH)      00012212220220607002022140830507896116866035003010SNN00
5017091PROGYNOVA                                   1 mg comp.x 28          00021318NNBayer (PH)      00009075920220607012022143063007795320050899002810SNN00
0990531PROGYNOVA                                   2 mg comp.x 28          00033207NNBayer (PH)      00014299720220607012022143074307795320050905002810SNN00
0990951PROLUTON DEPOT                              500 mg IM iny.a.ol.x 2ml00045798NNBayer (PH)      00019498320220607002022140831007501303419825000110SNN00
5987681QLAIRA                                      comp.rec.x 28           00000000NNBayer (PH)      00029275520220607012002144622107795320051247002810NNN00
6254261STIVARGA                                    40 mg tab.3 x 28        00000000NNBayer (PH)      14520525720220607013002145240307795320000528008410NNN00
0991441TESTOVIRON DEPOT                            250 mg IM iny.a.ol.x 1ml00161728NNBayer (PH)      00024953020220607A03022140831607795320007718000110SNN00
2718911TRIQUILAR                                   blist.grag.x 21         00000000ENBayer (PH)      00009328720220607002022140831707896116866172002110NNN00
9955938VENTAVIS                                    10 mcg/ml a.x 42 x 1 ml 00000000NNBayer (PH)      04903844120220607012002145593807795320052015004210NNN00
9955939VENTAVIS                                    20 mcg/ml a.x 42 x 1 ml 00000000NNBayer (PH)      04903844120220607012002145593907795320052008004210NNN00
6052551VISANNE                                     2mg 2 tabletas x 14 comp00000000NNBayer (PH)      00072198120220607012002144687807795320000047002810SNN00
5831971XARELTO                                     10 mg comp.x 10         00000000NNBayer (PH)      00146156720220607012022144341107793640991755001010NNN00
6151682XARELTO                                     15 mg comp.x 28         00000000NNBayer (PH)      00189993020220607012022144781007795320000245002810NNN00
6289682XARELTO                                     2.5 mg x 56 comp.       00000000NNBayer (PH)      00187131120220607012022145102507795320000689005610NNN00
6151711XARELTO                                     20 mg comp.x 14         00000000NNBayer (PH)      00100289920220607012022144781107795320000252001410NNN00
6151712XARELTO                                     20 mg comp.x 28         00000000NNBayer (PH)      00199668620220607012022144781207795320000269002830NNN00
4928011YASMIN                                      comp.rec.x 28           00000000ENBayer (PH)      00025969520220607012002143183107795320050912002810NNN00
5499682YASMINELLE                                  comp.rec.x 28           00000000ENBayer (PH)      00028369420220607012002145045707795320000504002810NNN00
5670551YAZ                                         comp.rec.x 28           00000000ENBayer (PH)      00031545320220607012002144223207795320051100002810NNN00
6167131YAZ METAFOLIN                               comp.rec.x 24+4         00000000NNBayer (PH)      00028687820220607012002144827307795320000382002810NNN00
9937143HUMIDERM                                    fr.x 200 ml             00000000NNSzama           00028232720220607001102283714307795354820369000110NNN00
0580197ACIDO ZOLEDRONICO IMA                       4 mg pvo.liof.x 1+solv. 00000000NNIMA             00455221520220606002002335091007798091910126000110NNN00
0652413AZOPANIM                                    200 mg comp.rec.x 30    00000000NNIMA             01513725820220606003002335769407798091910652003010NNN00
0652426AZOPANIM                                    400 mg comp.rec.x 30    00000000NNIMA             03077553920220606003002335769107798091910676003010NNN00
9953831AZZA                                        100 mg iny.liof.f.a.x 1 00000000NNIMA             03347027020220606003002335383107798091910393000110NNN00
0633184BICALUTAMIDA IMA                            50 mg comp.x 28         00000000NNIMA             00219966920220606003002335259907798091910287002810NNN00
9957009BINITIF                                     250 mg comp.x 30        00000000NNIMA             06288586420220606003002335700907798091910584003010NNN00
0670255CARLFIX                                     60 mg f.a.pvo.liof.x 1  00000000NNIMA             0934242782022060600300233598710             000111NNN00
0654326DANTROCRIS                                  20 mg pvo.liof.f.a. x 1200000000NNIMA             05514038420220606012002335921107798091910546001210NNN00
0630700DOCETAXEL SOL IMA                           20 mg f.a.x 1+diluy.    00000000NNIMA             00274994920220606003002335120007798091910133000111NNN00
0630713DOCETAXEL SOL IMA                           80 mg f.a.x 1+diluy.    00000000NNIMA             01023633320220606003002335119907798091910140000111NNN00
0630813DOXORUBICINA IMA                            50 mg liof.f.a.x 1      00000000NNIMA             00099632520220606003002335128407798091910164000110NNN00
0630684EPIRUBICINA IMA                             50 mg iny.liof.f.a.x 1  00000000NNIMA             00158531120220606002002335123707798091910188000110NNN00
0630697FLUDARABINA IMA                             50 mg iny.f.a.liof.x 1  00000000NNIMA             00410701320220606003002335116207798091910195000110NNN00
9954865FULL V                                      f.a.x 2 x5 ml+kit admin.00000000NNIMA             02903014020220606002002335486507798091910522000211NNN00
0630613GEMCITABINA IMA                             1000 mg pvo.liof.x 1    00000000NNIMA             00636343920220606003002335091207798091910119000110NNN00
0630600GEMCITABINA IMA                             200 mg pvo.liof.x 1     00000000NNIMA             00122616820220606003002335091107798091910102000110NNN00
0630842IDARUBICINA IMA                             10 mg liof.f.a.x 1      00000000NNIMA             00220999020220606003002335120207798091910218000110NNN00
0633171IMACAP                                      500 mg comp.rec.x 120   00000000NNIMA             01066638920220606003002335260007798091910294012010NNN00
9956592IMAXEL                                      20 mg/4 ml f.a.x 1      00000000NNIMA             00182952720220606003002335659207798091910553000111NNN00
9956511IMAXEL                                      80 mg/4 ml f.a.x 1      00000000NNIMA             00701824320220606003002335651107798091910560000111NNN00
0630626IRINOTECAN IMA                              100 mg f.a.x 1          00000000NNIMA             00469198920220606003002335092407798091910096000110NNN00
9953744MATIN                                       100 mg comp.rec.x 200   00000000NNIMA             05533432020220606002002335374407798091910362020010NNN00
9953743MATIN                                       400 mg comp.rec.x 30    00000000NNIMA             03895086320220606002002335374307798091910379003010NNN00
0661326NAUSEDRON                                   8 mg/4 ml a. x 1        00000000NNIMA             00035866820220606003002335856107798091910638000110NNN00
0630755OLIPTINO                                    100 mg liof.f.a.x 1     00000000NNIMA             00560746520220606003002335121107798091910232000110NNN00
0630742OLIPTINO                                    50 mg liof.f.a.x 1      00000000NNIMA             00366526720220606003002335121207798091910225000110NNN00
0630771PACLITAXEL IMA                              100 mg sol.iny.x 1      00000000NNIMA             00634338920220606003002335115907798091910256000111NNN00
0630784PACLITAXEL IMA                              150 mg sol.iny.x 1      00000000NNIMA             01054951120220606003002335116007798091910263000111NNN00
0630768PACLITAXEL IMA                              30 mg sol.iny.x 1       00000000NNIMA             00207113720220606003002335115807798091910249000111NNN00
0630797PACLITAXEL IMA                              300 mg sol.iny.x 1      00000000NNIMA             01926000720220606003002335116107798091910270000111NNN00
0630597PEMETREXED IMA                              500 mg pvo.liof.x 1     00000000NNIMA             03609212420220606003002335091307798091910089000110NNN00
0649542PROPOVAN                                    10 mg/ml a.x 5 x 20 ml  00000000NNIMA             00226007220220606002002335593007798091910508000510NNN00
0647871QUERAMUS                                    100 mg pvo.liof.x 1     00000000NNIMA             02533558120220606003002335416007798091910416000110NNN00
0658342REMIFAS                                     5 mg f.a.x 5 x 5 ml     00000000NNIMA             00223348420220606614002335809407798091910614000510NNN00
9957600ROPI                                        10 mg/ml a.x 5 x 20 ml  00000000NNIMA             00109283720220606003002335760007798091910478000510NNN00
9957601ROPI                                        2 mg/ml a.x 5 x 20 ml   00000000NNIMA             00129969320220606003002335760107798091910454000510NNN00
9955712ROPI                                        7.5 mg/ml a.x 5 x 20 ml 00000000NNIMA             00074275320220606003002335571207798091910461000510NNN00
0649113SEVOCRIS                                    env.x 250 ml            00000000NNIMA             00243673220220606012002335554907798091910447000110NNN00
9954838SIMBIOTE                                    3.5 mg pvo.liof.x1      00000000NNIMA             03671100020220606002002335483807798091910515000110NNN00
0653113TYGARONA                                    250 mg comp.x 120       00000000NNIMA             06691960820220606003002335769307798091910645012010NNN00
0664468URIMA                                       10 mg comp.rec.x 30     00000000NNIMA             00051792020220606002002335987207798091910744003010NNN00
0664455URIMA                                       5 mg comp.rec.x 30      00000000NNIMA             00045714520220606002002335987307798091910737003010NNN00
9921040ASSY 2000 PEINE                             acer.temp.dien.microacan00000000NNAssistance      00009990020220606001102992104007791940020007000110NNN00
9941277ASSY MAX                                    conc.doble acci¢n x 60ml00000000NNAssistance      00009390020220606001102994127707791940132984000110NNN00
9948311ASSY PACK AHORRO MAX                        loc.conc.x 60ml+peine ac00000000NNAssistance      00014990020220606001102994831107791940000337000110NNN00
9911698ASSY PEINE                                  peine acero templado x 100000000NNAssistance      00008490020220606001102991169807791940123562000110NNN00
9944358ASSY POWER                                  loc.bifasica x 60 ml    00000000NNAssistance      00009890020220606001102994435807791940000191000110NNN00
9946683ASSY TERMINATOR                             loc.thermo-exterm x 90ml00000000NNAssistance      00013990020220606001102994668307791940000283000110NNN00
9951348FORMULY PIEL ALTA EXIGENCIA                 3 en 1 cr.x 50 g        00000000NNAssistance      00031990020220606001102995134807791940000368000110NNN00
9944900FORMULY PIEL ANTI-ARRUGAS TOTAL             Trat.Multi-repa.cr.x 50g00000000NNAssistance      00028590020220606001102994490007791940000221000110NNN00
9951349FORMULY PIEL CORRECCIàN TOTAL               3 en 1 cr.x 50          00000000NNAssistance      00028990020220606001102995134907791940000382000110NNN00
9946419FORMULY PIEL LIFTING TOTAL                  cr.x 50 g               00000000NNAssistance      00028590020220606001102994641907791940000399000110NNN00
9943048FORMULY PIEL PRIMEROS SIGNOS                trat.correct.+25a¤osx50g00000000NNAssistance      00018990020220606001102994304807791940000085000110NNN00
9944901FORMULY PIEL-ANTI-MANCHAS TOTAL             Trat.Multi/correct.x 50g00000000NNAssistance      00028590020220606001102994490107791940000214000110NNN00
9943046FORMULY PIEL-DEMAQUILLANTE GLOBAL           rostro y ojos emul.x200g00000000NNAssistance      00015990020220606001102994304607791940000092000110NNN00
9951347FORMULY PIEL-HYDRAMAX THERMAL               3 en 1 cr.x 50 g        00000000NNAssistance      00025790020220606001102995134707791940000375000110NNN00
9944201FORMULY PIEL-HYDRAMAX THERMAL               agua termal spray x155ml00000000NNAssistance      00018090020220606001102994420107791940000177000110NNN00
9932367GL PEINE                                    peine piojos met lico   00000000NNAssistance      00006490020220606001102993236707791940123647000110NNN00
9917009TONEKIN                                     Slim caps.blandas x 30  00000000NNAssistance      00025790020220606001102991700907791940000047003010NNN00
9937001TONEKIN CELULITIS                           trat.4acc.en1emuls.x200g00000000NNAssistance      00021990020220606001102993700107791940000078000110NNN00
9942237TONEKIN ESTRIAS                             emuls.x 150 g           00000000NNAssistance      00017990020220606001102994223707791940133028000110NNN00
9945503TONEKIN GLUTEOS                             gel-crema x 150 g       00000000NNAssistance      00021990020220606001102994550307791940000238000110NNN00
9942238TONEKIN MICRO-PEELING                       gel microgranul.x 150 g 00000000NNAssistance      00016990020220606001102994223807791940133042000110NNN00
9943977TONEKIN PIERNAS                             emulsi¢n x 150 g        00000000NNAssistance      00014990020220606001102994397707791940000146000110NNN00
9942236TONEKIN SLIM & FIRM                         emuls.x 200 g           00000000NNAssistance      00023990020220606001102994223607791940133035000110NNN00
9959280AMINOCUP                                    comp. x 30              00000000NNDr.Madaus       00009950020220606001103665928007798028623907003010NNN00
9956053ARNICA GEL                                  gel x 25 g              00000000NNDr.Madaus       00003820020210714001103665605317798028623747000110NNN00
9946278ARNICA GEL                                  gel x 75 g              00000000NNDr.Madaus       00010850020220606001103664627807798028620098000130NNN00
9947061ARNICA OIL                                  aceite p/masajes x 100ml00000000NNDr.Madaus       00014000020220606001103664706107798028620135000110NNN00
9958893ARNICA ROLLON                               gel x 90 g              00000000NNDr.Madaus       00009100020220606001103665889307798028623983000110NNN00
9916019BOLUS OLIGOPLEX                             pvo.x 50 g              00000000NNDr.Madaus       00013200020220606002003661601907798028620036000110NNN00
9916025CASCARA SAGRADA OLIGOPLEX                   comp.x 30               00000000NNDr.Madaus       00005850020220606002003661602507798028620012003030NNN00
9936280CASCARA SAGRADA OLIGOPLEX                   disp.blist.x 20 x10 comp00000000NNDr.Madaus       00040500020220606002003663628007798028623136020010NNN00
9959497CREMA FACIAL BIOREPARADORA                  pomo x 60 g             00000000NNDr.Madaus       00012100020220606001103665949707798028623990000110NNN00
9949110ECHINAGRIP                                  env.x 60 ml             00000000NNDr.Madaus       00014400020220606001003664911007798028623877000110NNN00
9953964OMS CAPILARES SIN PARABENOS                 avena+kerat.bals.x 250ml00000000NNDr.Madaus       00009950020220606001103665396407798028623693000110NNN00
9950111OMS CAPILARES SIN PARABENOS                 avena+keratina sh.x250ml00000000NNDr.Madaus       00008100020211206001103665011117798028623662000110NNN00
9953965OMS CAPILARES SIN PARABENOS                 damasco+ceram.bals.x 25000000000NNDr.Madaus       00007300020220216001103665396517798028623709000110NNN00
9950113OMS CAPILARES SIN PARABENOS                 damasco+ceram.sh.x 250ml00000000NNDr.Madaus       00010200020220606001103665011307798028623679000110NNN00
9950112OMS CAPILARES SIN PARABENOS                 ortiga+romero balsx250ml00000000NNDr.Madaus       00009950020220606001103665011207798028623686000110NNN00
9950114OMS CAPILARES SIN PARABENOS                 ortiga+romero sh.x 250ml00000000NNDr.Madaus       00010900020220606001103665011407798028623655000110NNN00
9949269OMS CORPORAL                                avena+karite emuls.x180g00000000NNDr.Madaus       00016900020220606001103664926907798028620203000110NNN00
9932027OMS CORPORAL                                cal‚nd.+karite cr.x 200g00000000NNDr.Madaus       00017500020220606001103663202707798028621767000110NNN00
9945495OMS CORPORAL                                gel fitot¢nico x 200 g  00000000NNDr.Madaus       00012100020220606001103664549507798028623013000110NNN00
9958640OMS CORPORAL                                man.y u¤. BioRep.cr.x90g00000000NNDr.Madaus       00009300020220606001103665864007798028623952000110NNN00
9958639OMS FACIAL LIMPIEZA                         agua micelar A+Z x200 ml00000000NNDr.Madaus       00010950020220606001103665863907798028623969000110NNN00
9957384OMS FACIAL LIMPIEZA                         cr.fl. cal‚ndula x200 ml00000000NNDr.Madaus       00014200020220606001103665738407798028623976000110NNN00
9957386OMS FACIAL LIMPIEZA                         gel purificante x 125 g 00000000NNDr.Madaus       00010900020220606001103665738607798028623808000110NNN00
9957385OMS FACIAL LIMPIEZA                         loc. dermocalman x130 ml00000000NNDr.Madaus       00010450020220606001103665738507798028623594000110NNN00
9959326SHAMPOO AVENA + KERATINA                    fr. x 300 ml            00000000NNDr.Madaus       00012950020220606001103665932607798028624010000110NNN00
9959843SHAMPOO ORTIGA + ROMERO                     bot. x 300 ml           00000000NNDr.Madaus       00012850020220606001103665984307798028624027000110NNN00
9951570VALEDORMIR                                  comp.x 40               00000000NNDr.Madaus       00009950020220606001003665157007798028620302004030NNN00
9951903BLOOMING                                    cepillo & peine p/beb‚  00000000NNGrimberg        00012000020220606001103815190307798158483471000210NNN00
9929919BLOOMING                                    clips x 8               00000000NNGrimberg        00004700020220606001103812991907798034747475000810NNN00
9925145BLOOMING                                    sach.x 80               00000000NNGrimberg        00056700020220606001103812514507798034740131008010NNN00
9938904BOQUILLA P/DUCHA BUCAL                      Clasica p/ÿWP70         00000000NNGrimberg        00025000020220606011103813890400073950318068000110NNN00
9957898BOQUILLA P/DUCHA BUCAL                      Limpiadoralingual p/WP7000000000NNGrimberg        00025000020220606011103815789800073950111195000110NNN00
9957899BOQUILLA P/DUCHA BUCAL                      Standard p/ WF-02E2     00000000NNGrimberg        00025000020220606011103815789900073950278881000110NNN00
9922613BUCAL BOX CAJAS PARA ORTODONCIA             Classic c/aroma x 1     00000000NNGrimberg        00003490020220606001103812261307798034740032000110NNN00
9942109BUCAL BOX CAJAS PARA ORTODONCIA             Croma c/aroma x 1       00000000NNGrimberg        00003490020220606001103814210907798034740346000110NNN00
9925133BUCAL GUARD                                 Protector bucal x 1u    00000000NNGrimberg        00005990020220606001103812513307798034740612000110NNN00
9945877BUCAL GUARD KIDS                            Protector bucal Ni¤os x100000000NNGrimberg        00005990020220606001103814587707798034746362000110NNN00
9918368BUCAL TAC BABY                              BabyDedal/Gaturro cep.x100000000NNGrimberg        00005790020220606001103811836807798158484058000110NNN00
9955822BUCAL TAC BIOBALANCE                        enj.buc. boca secax480ml00000000NNGrimberg        00018000020220606001103815582207798034746676000110NNN00
9957864BUCAL TAC BIOBALANCE                        spray p/boca seca x 25ml00000000NNGrimberg        00009900020220606001103815786407798034746713000110NNN00
9958906BUCAL TAC CEPILLOS DENTALES                 5680 Adultos c/cap. x 1 00000000NNGrimberg        00005290020220606011103815890607798034748557000110NNN00
9958907BUCAL TAC CEPILLOS DENTALES                 5680 p/ortod. c/cap. x 100000000NNGrimberg        00005290020220606011103815890707798034748564000110NNN00
9939465BUCAL TAC CEPILLOS DENTALES                 Classic Serie 2 cep.x 1 00000000NNGrimberg        00004390020220606011103813946507798034742111000110NNN00
9939466BUCAL TAC CEPILLOS DENTALES                 Classic Serie 3 cep.x 1 00000000NNGrimberg        00004390020220606011103813946607798034743118000110NNN00
9939467BUCAL TAC CEPILLOS DENTALES                 Classic Serie 4 cep.x 1 00000000NNGrimberg        00004390020220606011103813946707798034744146000110NNN00
9939471BUCAL TAC CEPILLOS DENTALES                 Comp.suave 4 hil.cep.x 100000000NNGrimberg        00004390020220606011103813947107798034744092000110NNN00
9945966BUCAL TAC CEPILLOS DENTALES                 Evolucion 2.1 suave x 1 00000000NNGrimberg        00005700020220606011103814596607798034743262000110NNN00
9940074BUCAL TAC CEPILLOS DENTALES                 Evolucion 3.1 suave x 1 00000000NNGrimberg        00005700020220606011103814007407798034749875000110NNN00
9941711BUCAL TAC CEPILLOS DENTALES                 Evolucion 3.6 ult.softx100000000NNGrimberg        00005700020220606011103814171107798034747383000110NNN00
9940075BUCAL TAC CEPILLOS DENTALES                 Evolucion 4.1 suave x 1 00000000NNGrimberg        00005700020220606011103814007507798034741787000110NNN00
9945967BUCAL TAC CEPILLOS DENTALES                 Evolucion Sulcus cep.x 100000000NNGrimberg        00005700020220606011103814596707798034743279000110NNN00
9954448BUCAL TAC CEPILLOS DENTALES                 Gaturro c/capuch¢n x 1  00000000NNGrimberg        00004200020220606011103815444807798158483549000110NNN00
9948237BUCAL TAC CEPILLOS DENTALES                 Travel Kit(gel+cep.+nes)00000000NNGrimberg        00007600020220606011103814823707798158489275000310NNN00
9939577BUCAL TAC CEPILLOS INTERDENTALES            Cil¡nd.X fino 1.9 mm x8u00000000NNGrimberg        00006100020220606011103813957707798034748311000810NNN00
9939576BUCAL TAC CEPILLOS INTERDENTALES            Cil¡nd.XX fino 1.7mm x8u00000000NNGrimberg        00006100020220606011103813957607798034748304000810NNN00
9939578BUCAL TAC CEPILLOS INTERDENTALES            Cil¡nd.fino 2.5 mm x 8u.00000000NNGrimberg        00006100020220606011103813957807798034748328000810NNN00
9939579BUCAL TAC CEPILLOS INTERDENTALES            Cil¡nd.stand. 3 mm x 8u.00000000NNGrimberg        00006100020220606011103813957907798034748335000810NNN00
9939582BUCAL TAC CEPILLOS INTERDENTALES            C¢nico fino 2.1/4.6mmx8u00000000NNGrimberg        00006100020220606011103813958207798034748366000810NNN00
9939583BUCAL TAC CEPILLOS INTERDENTALES            C¢nico stand.3/7 mm x8u.00000000NNGrimberg        00006100020220606011103813958307798034748373000810NNN00
9939775BUCAL TAC CEPILLOS INTERDENTALES            Kit Prox.Syst.(mgo+rpto)00000000NNGrimberg        00006100020220606011103813977507798034748472000110NNN00
9950999BUCAL TAC CEPILLOS INTERDENTALES            Mgo + 3 u. de repuesto  00000000NNGrimberg        00006200020220606011103815099907798158481699000410NNN00
9948472BUCAL TAC CERAS PARA ORTODONCIA             Barras x 6 s/mta.20%grat00000000NNGrimberg        00004200020220606001103814847207798158482481000610NNN00
9948471BUCAL TAC CERAS PARA ORTODONCIA             Barras x 6 s/sab.20%grat00000000NNGrimberg        00004200020220606001103814847107798158482474000610NNN00
9959216BUCAL TAC CREMA DENTAL                      Antic.remine.prote.x 20g00000000NNGrimberg        00002760020220606001103815921607798034743125000110NNN00
9953665BUCAL TAC CREMA DENTAL                      Antic.remine.prote.x100g00000000NNGrimberg        00006990020220606001103815366507798158482641000130NNN00
9953669BUCAL TAC CREMA DENTAL                      Gaturro x 90g           00000000NNGrimberg        00004950020220606001103815366907798158483556000110NNN00
9951354BUCAL TAC ENJUAGUES BUCALES                 Antiplaca Antibac.x240ml00000000NNGrimberg        00007500020220606001103815135407798158481453000110NNN00
9946065BUCAL TAC ENJUAGUES BUCALES                 Fluor y Xilitol x 500 ml00000000NNGrimberg        00008800020220606001103814606507798034742753000110NNN00
9935559BUCAL TAC GEL DENTAL                        HyperSensitive gel x100g00000000NNGrimberg        00006990020220606001103813555907798034749622000110NNN00
9942344BUCAL TAC GEL DENTAL                        Whitening gel Blanc.100g00000000NNGrimberg        00006990020220606001103814234407798034747406000110NNN00
9959215BUCAL TAC GEL DENTAL                        Whitening gel Blanc.20 g00000000NNGrimberg        00002760020220606001103815921507798034742739000110NNN00
9954447BUCAL TAC GEL DENTAL 5000                   Uso terap.tratam.x 60 g 00000000NNGrimberg        00008200020220606001103815444707798158481620000110NNN00
9942602BUCAL TAC HILOS DENTALES                    Enhebrador p/Hilo x 25 u00000000NNGrimberg        00003990020220606011103814260207798034749738002510NNN00
9939591BUCAL TAC HILOS DENTALES                    Fino c/Cera Menta 50 mts00000000NNGrimberg        00004500020220606011103813959107798034748403005010NNN00
9939592BUCAL TAC HILOS DENTALES                    Fino s/Cera x 50 mts    00000000NNGrimberg        00004500020220606011103813959207798034748410005010NNN00
9958558BUCAL TAC PALILLOS INTERDENTALES            Periostick soft pal x30u00000000NNGrimberg        00006080020220606001103815855807798034748601003010NNN00
9939036BUCAL TAC PERIODENT                         Gel Bioadhes.bucof. x20g00000000NNGrimberg        00009450020220606001103813903607798034741886000110NNN00
9939334BUCAL TAC PERIODENT                         Manten.enj.bucal x200 ml00000000NNGrimberg        00009100020220606001103813933407798034741909000110NNN00
9939335BUCAL TAC PERIODENT                         Manten.enj.bucal x480 ml00000000NNGrimberg        00018800020220606001103813933507798034741916000130NNN00
9938482BUCAL TAC PERIODENT                         Spray Bucofaring. x 60ml00000000NNGrimberg        00012650020220606001103813848207798034741893000110NNN00
9946064BUCAL TAC PERIODENT                         trat. enj.bucal x 1L    00000000NNGrimberg        00029800020220606001103814606407798034740353000150NNN00
9926342BUCAL TAC PERIODENT                         trat. enj.bucal x 200 ml00000000NNGrimberg        00008800020220606001103812634207798034741947000110NNN00
9929918BUCAL TAC PERIODENT                         trat. enj.bucal x 480 ml00000000NNGrimberg        00018800020220606001103812991807798034746065000120NNN00
9943570BUCAL TAC REVELADOR DE PLACA                Detector Rev.Placa 200ml00000000NNGrimberg        00007200020220606001103814357007798034747444000110NNN00
9944348BUCAL TAC REVELADOR DE PLACA                Dos Tonos Sol Rev.10 ml 00000000NNGrimberg        00012600020220606001103814434807798034746287000110NNN00
9950344BUCAL TAC SWEET CARE                        caram.anticar.frut.x 80g00000000NNGrimberg        00005790020220606011103815034407798158482788000110NNN00
9950343BUCAL TAC SWEET CARE                        caram.anticar.mentax 80g00000000NNGrimberg        00005790020220606011103815034307798158482771000110NNN00
9950345BUCAL TAC SWEET CARE                        chup.anticar.t/frut.x81g00000000NNGrimberg        00005790020220606011103815034507798158482795000110NNN00
9945119BUCAL TAC TABLETAS LIMPIADORAS              Tab.limp.eferv.x 12     00000000NNGrimberg        00004800020220606001103814511907798034742760001210NNN00
9949071CLEAR VISION                                limpiador spray x 28 ml 00000000NNGrimberg        00005590020220606001103814907107798158482740000110NNN00
9938174CRIOSPRAY                                   spray refrig.x 250 ml   00000000NNGrimberg        00022000020220606001103813817407798034742708000110NNN00
9940241DENTIFIX                                    tabletas x 12           00000000NNGrimberg        00004800020220606001103814024107798097326679001210NNN00
9940020DENTIFIX CREMA                              Menta adh.ext.fte. x 40g00000000NNGrimberg        00006900020220606001103814002007798097328000000110NNN00
9947086DENTIFIX CREMA                              adh. x 25g 25% gratis   00000000NNGrimberg        00004800020220606001103814708607798158481996000110NNN00
9937487DENTIFIX CREMA                              adh.ext.fuerte x 20 g   00000000NNGrimberg        00004800020220606001103813748707798097320158000110NNN00
9933644DENTIFIX CREMA                              adh.ext.fuerte x 40 g   00000000NNGrimberg        00006900020220606001103813364407798097320066000120NNN00
9942698DENTIFIX CREMA                              cr.adh.x 48g 20% Gratis 00000000NNGrimberg        00006900020220606001103814269807798097326709000150NNN00
9933645DENTIFIX POLVO                              Adhesivo x 20 g         00000000NNGrimberg        00006500020220606001103813364507798097325207000110NNN00
9957896DUCHA BUCAL                                 EdEsp.Black Inal.Ind.Flo00000000NNGrimberg        00179000020220606011103815789600073950226257000110NNN00
9916822DUCHA BUCAL                                 Fliar.c/4boq.+acces.limp00000000NNGrimberg        00239000020220606011103811682200073950202411000110NNN00
9957895DUCHA BUCAL                                 Inal mb.Indiv.Flosser   00000000NNGrimberg        00179000020220606011103815789500073950204170000110NNN00
9958908DUCHA BUCAL                                 UltraJetÿ100ÿA x 1      00000000NNGrimberg        00279000020220606011103815890800073950118247000110NNN00
9957900GREEN DENT BY BUCAL TAC                     Adulto cep.dental x 1   00000000NNGrimberg        00003890020220606011103815790007798158489411000110NNN00
9958904GREEN DENT BY BUCAL TAC                     BambooAdul. cep.dent.x 100000000NNGrimberg        00004390020220606011103815890407798034748533000110NNN00
9958905GREEN DENT BY BUCAL TAC                     BambooNi¤o cep.dent. x 100000000NNGrimberg        00004390020220606011103815890507798034748540000110NNN00
9957901GREEN DENT BY BUCAL TAC                     Ni¤o cep.dental x 1     00000000NNGrimberg        00003890020220606011103815790107798158489428000110NNN00
9923646MINAMINT DESODORANTE BUCAL SPRAY            Freshmint desod.buc.x9ml00000000NNGrimberg        00004890020220606011103812364607798034749257000110NNN00
9959337MINAMINT DESODORANTE BUCAL SPRAY            Freshmint s/blister x9ml00000000NNGrimberg        00004080020220606011103815933707798034740360000110NNN00
9923644MINAMINT DESODORANTE BUCAL SPRAY            Spearmint desod.buc.x9ml00000000NNGrimberg        00004890020220606011103812364407798034749240000110NNN00
9959336MINAMINT DESODORANTE BUCAL SPRAY            Spearmint s/blister x9ml00000000NNGrimberg        00004080020220606011103815933607798034740254000110NNN00
9959688MINAMINT DESODORANTE BUCAL SPRAY            Surtidos fcos. x 24     00000000NNGrimberg        00098000020220606011103815968807798158484782002410NNN00
9945375SEGURDENT                                   cr.adh.sab.menta x 40 g 00000000NNGrimberg        00006150020220606001103814537507798097320196000110NNN00
9945374SEGURDENT                                   cr.adh.sab.neutro x 40 g00000000NNGrimberg        00006150020220606001103814537407798097321018000110NNN00
9945956COLDCREAM                                   env.x 30 ml             00000000NNWeleda          00029000020220606011104794595607611916126154000110NNN00
9945955EVERON                                      env.x 4 g               00000000NNWeleda          00021000020220606011104794595504001638088381000110NNN00
9929594WELEDA ACEITES CORPORALES                   Abedul p/celul.ac.x100ml00000000NNWeleda          00033000020220606011104792959404001638088039000110NNN00
9942901WELEDA ACEITES CORPORALES                   Aceite p/embarazo x100ml00000000NNWeleda          00032000020220606011104794290104001638095112000110NNN00
9929593WELEDA ACEITES CORPORALES                   Arnica aceite x 100 ml  00000000NNWeleda          00029000020220606011104792959304001638099226000130NNN00
9929592WELEDA ACEITES CORPORALES                   Arnica aceite x 50 ml   00000000NNWeleda          00026000020220606011104792959204001638099202000110NNN00
9929595WELEDA ACEITES CORPORALES                   Cal‚ndula aceite x 100ml00000000NNWeleda          00029000020220606011104792959504001638099295000110NNN00
9929596WELEDA ACEITES CORPORALES                   Citrus corp.ac.x 100 ml 00000000NNWeleda          00029000020220606011104792959604001638097048000110NNN00
9935629WELEDA ACEITES CORPORALES                   Espino amari.ac.x 100 ml00000000NNWeleda          00030000020220606011104793562904001638099950000110NNN00
9944460WELEDA ACEITES CORPORALES                   Granada aceite x 100 ml 00000000NNWeleda          00032000020220606011104794446004001638088473000110NNN00
9929585WELEDA ACEITES CORPORALES                   Lavanda aceite x 100 ml 00000000NNWeleda          00029000020220606011104792958504001638099943000110NNN00
9957869WELEDA ACEITES CORPORALES                   Onagra revitaliz.x 100ml00000000NNWeleda          00032000020220606011104795786904001638086639000110NNN00
9929584WELEDA ACEITES CORPORALES                   Rosa mosqueta ac.x 100ml00000000NNWeleda          00030000020220606011104792958404001638099394000110NNN00
9957880WELEDA ANTI-IMPERFECCIONES                  Fluido Matificante x30ml00000000NNWeleda          00030000020220606011104795788004001638500227000110NNN00
9957881WELEDA ANTI-IMPERFECCIONES                  Gel limp.purific.x100 ml00000000NNWeleda          00030000020220606011104795788104001638500210000110NNN00
9957882WELEDA ANTI-IMPERFECCIONES                  Trat. S.O.S x 10 ml     00000000NNWeleda          00030000020220606011104795788204001638500234000110NNN00
9941918WELEDA CABELLO                              Aceite capilar nut.x50ml00000000NNWeleda          00026000020220606011104794191804001638095631000110NNN00
9929626WELEDA CABELLO                              Romero loc.x 100 ml     00000000NNWeleda          00026000020220606011104792962604001638095716000110NNN00
9939492WELEDA CALENDULA (BEBES,N¥,PIEL SENS.)      aceite x 200 ml         00000000NNWeleda          00027000020220606011104793949204001638096553000110NNN00
9939493WELEDA CALENDULA (BEBES,N¥,PIEL SENS.)      ba¤o de cr.x 200 ml     00000000NNWeleda          00027000020220606011104793949304001638096591000110NNN00
9929605WELEDA CALENDULA (BEBES,N¥,PIEL SENS.)      cr.pa¤al x 75 ml        00000000NNWeleda          00028000020220606011104792960504001638098311000110NNN00
9939494WELEDA CALENDULA (BEBES,N¥,PIEL SENS.)      facial cr.x 50 ml       00000000NNWeleda          00026000020220606011104793949404001638096614000110NNN00
9939495WELEDA CALENDULA (BEBES,N¥,PIEL SENS.)      leche corp.x 200 ml     00000000NNWeleda          00026000020220606011104793949504001638096539000110NNN00
9929613WELEDA CUIDADOS DENTALES                    Agua dent¡frica x 50 ml 00000000NNWeleda          00023000020220606011104792961304001638098069000110NNN00
9929612WELEDA CUIDADOS DENTALES                    Cal‚ndula pasta x 75 ml 00000000NNWeleda          00017000020220606011104792961204001638098014000130NNN00
9929611WELEDA CUIDADOS DENTALES                    Ni¤os gel dent.x 50 ml  00000000NNWeleda          00016000020220606011104792961104001638081863000130NNN00
9929610WELEDA CUIDADOS DENTALES                    Ratania pasta dent.x75ml00000000NNWeleda          00017000020220606011104792961004001638098083000110NNN00
9929608WELEDA CUIDADOS DENTALES                    Salina pasta dent.x 75ml00000000NNWeleda          00017000020220606011104792960804001638098090000130NNN00
9929609WELEDA CUIDADOS DENTALES                    Vegetal gel dent.x 75 ml00000000NNWeleda          00017000020220606011104792960904001638098045000110NNN00
9935454WELEDA DESODORANTES                         Citrus desodorant.x118ml00000000NNWeleda          00018000020220606001104793545407798036820770000110NNN00
9957890WELEDA DESODORANTES                         Roll-on Citrus x 50 ml  00000000NNWeleda          00015000020220606011104795789004001638095235000110NNN00
9957892WELEDA DESODORANTES                         Roll-on Granada x 50 ml 00000000NNWeleda          00015000020220606011104795789204001638500203000110NNN00
9957891WELEDA DESODORANTES                         Roll-on Hombres x 50 ml 00000000NNWeleda          00015000020220606011104795789104001638095228000110NNN00
9935457WELEDA DESODORANTES                         Rosa desodorant.x 118 ml00000000NNWeleda          00019000020220606001104793545707798036820794000110NNN00
9935455WELEDA DESODORANTES                         Salvia desodorant.x118ml00000000NNWeleda          00018000020220606001104793545507798036820787000110NNN00
9957894WELEDA DUCHA 2 EN 1 (BEBES,N¥,PIEL SENS.)   champ+gel Menta Fresca  00000000NNWeleda          00021000020220606011104795789404001638501408000210NNN00
9957893WELEDA DUCHA 2 EN 1 (BEBES,N¥,PIEL SENS.)   champ+gel NaranjaFrutal 00000000NNWeleda          00021000020220606011104795789304001638075114000210NNN00
9944075WELEDA EXFOLIANTE                           Abedul x 150 ml         00000000NNWeleda          00026000020220606011104794407504001638088312000110NNN00
9929634WELEDA FITOACONDICIONADOR                   Aloe x 200 ml           00000000NNWeleda          00016000020220606001104792963407798036820886000110NNN00
9935458WELEDA FITOACONDICIONADOR                   Argan x 200 ml          00000000NNWeleda          00016000020220606001104793545807798036820916000110NNN00
9935459WELEDA FITOACONDICIONADOR                   Manzanilla x 200 ml     00000000NNWeleda          00016000020220606001104793545907798036820893000110NNN00
9955920WELEDA FITOSHAMPOO                          Aloe x 250 ml           00000000NNWeleda          00016000020220606001104795592007798036820824000110NNN00
9955921WELEDA FITOSHAMPOO                          Argan x 250 ml          00000000NNWeleda          00016000020220606001104795592107798036820909000110NNN00
9929632WELEDA FITOSHAMPOO                          Cal‚ndula x 250 ml      00000000NNWeleda          00016000020220606001104792963207798036820848000110NNN00
9929629WELEDA FITOSHAMPOO                          Ortiga x 250 ml         00000000NNWeleda          00016000020220606001104792962907798036820572000110NNN00
9929631WELEDA FITOSHAMPOO                          Romero x 250 ml         00000000NNWeleda          00016000020220606001104792963107798036820510000110NNN00
9929617WELEDA FITOSPRAY                            Anti-ardor x 30 ml      00000000NNWeleda          00015000020220606001104792961707798036820541000110NNN00
9929616WELEDA FITOSPRAY                            Arnica x 30 ml          00000000NNWeleda          00015000020220606001104792961607798036820527000110NNN00
9929615WELEDA FITOSPRAY                            Cal‚ndula x 30 ml       00000000NNWeleda          00015000020220606001104792961507798036820534000110NNN00
9923219WELEDA FITOSPRAY                            Liendres x 120 ml       00000000NNWeleda          00019000020220606001104792321907798036820558000110NNN00
9942893WELEDA GEL CREMOSO DE DUCHA                 AromaShowerLove x 200 ml00000000NNWeleda          00024000020220606011104794289307611916160769000110NNN00
9949848WELEDA GEL CREMOSO DE DUCHA                 Cal‚ndula x 200 ml      00000000NNWeleda          00018000020220606011104794984804001638096515000110NNN00
9942892WELEDA GEL CREMOSO DE DUCHA                 Citrus Refresh x 200 ml 00000000NNWeleda          00024000020220606011104794289207611916124501000110NNN00
9942894WELEDA GEL CREMOSO DE DUCHA                 Espino amarillo x 200 ml00000000NNWeleda          00024000020220606011104794289404001638088282000110NNN00
9944461WELEDA GEL CREMOSO DE DUCHA                 Granada Inspire x 200 ml00000000NNWeleda          00026000020220606011104794446107611916125720000110NNN00
9957889WELEDA GEL DE DUCHA                         Sport de µrnica x 200 ml00000000NNWeleda          00024000020220606011104795788904001638093668000110NNN00
9944462WELEDA GRANADA                              Crema p/manos x 50 ml   00000000NNWeleda          00026000020220606011104794446204001638088459000110NNN00
9929588WELEDA HOMBRE                               b lsamo p/afeitadox100ml00000000NNWeleda          00023000020220606011104792958804001638098564000110NNN00
9929587WELEDA HOMBRE                               crema de afeitar x 75 ml00000000NNWeleda          00022000020220606011104792958704001638098809000110NNN00
9939491WELEDA HOMBRE                               crema hidrat.x 30 ml    00000000NNWeleda          00026000020220606011104793949104001638093934000110NNN00
9929607WELEDA JABONES                              Cal‚ndula jab.veg.x 100g00000000NNWeleda          00020000020220606011104792960704001638098946000110NNN00
9957883WELEDA LECHES CORPORALES                    Citrus Hidrat. x 200 ml 00000000NNWeleda          00026000020220606011104795788304001638088565000110NNN00
9957884WELEDA LECHES CORPORALES                    EspinoAmar. Nutr.x 200ml00000000NNWeleda          00028000020220606011104795788404001638088589000110NNN00
9957886WELEDA LECHES CORPORALES                    Granada Regener.x 200 ml00000000NNWeleda          00028000020220606011104795788604001638088596000110NNN00
9957885WELEDA LECHES CORPORALES                    Rosa Mosq. Suav.x 200 ml00000000NNWeleda          00028000020220606011104795788504001638088572000110NNN00
9959723WELEDA LECHES CORPORALES                    Skin Food x 200 ml      00000000NNWeleda          00027000020220606011104795972304001638529426000110NNN00
9958860WELEDA LINEA CACTUS                         24h Hydracream x 30 ml  00000000NNWeleda          00028000020220606011104795886004001638523219000110NNN00
9958861WELEDA LINEA CACTUS                         24h Hydralotion x 30 ml 00000000NNWeleda          00028000020220606011104795886104001638500029000110NNN00
9958862WELEDA LINEA CACTUS                         Hydragel OjosRefr x 10ml00000000NNWeleda          00031000020220606011104795886204001638526456000110NNN00
9958863WELEDA LINEA CACTUS                         Hydramist Br.Fac. x100ml00000000NNWeleda          00037000020220606011104795886307611916357756000110NNN00
9945951WELEDA NUEVA LINEA ALMENDRA                 Facial aceite x 50 ml   00000000NNWeleda          00031000020220606011104794595104001638080309000110NNN00
9945949WELEDA NUEVA LINEA ALMENDRA                 Facial aromat.cr.x 30 ml00000000NNWeleda          00033000020220606011104794594904001638086004000110NNN00
9945950WELEDA NUEVA LINEA ALMENDRA                 Fluido aromat.cr.x 30 ml00000000NNWeleda          00031000020220606011104794595004001638086882000110NNN00
9945948WELEDA NUEVA LINEA ALMENDRA                 Leche limp.x 75 ml      00000000NNWeleda          00029000020220606011104794594804001638080316000110NNN00
9957868WELEDA NUEVA LINEA GRANADA                  Cont.ojos reafirm. x10ml00000000NNWeleda          00031500020220606011104795786804001638097253000110NNN00
9945936WELEDA NUEVA LINEA GRANADA                  D¡a cr.x 30 ml          00000000NNWeleda          00031500020220606011104794593604001638090889000110NNN00
9945937WELEDA NUEVA LINEA GRANADA                  Noche cr.x 30 ml        00000000NNWeleda          00031500020220606011104794593704001638091015000110NNN00
9945939WELEDA NUEVA LINEA GRANADA                  Serum reafirmante x 10ml00000000NNWeleda          00035000020220606011104794593904001638080040000110NNN00
9958493WELEDA NUEVA LINEA GRANADA                  aceite facial reaf.x30ml00000000NNWeleda          00036000020220606011104795849304001638502368000110NNN00
9945940WELEDA NUEVA LINEA IRIS                     D¡a cr.x 30 ml          00000000NNWeleda          00027000020220606011104794594004001638088763000110NNN00
9945941WELEDA NUEVA LINEA IRIS                     Fluido hidratante x30ml 00000000NNWeleda          00027000020220606011104794594104001638080194000110NNN00
9945942WELEDA NUEVA LINEA IRIS                     Noche cr.x 30 ml        00000000NNWeleda          00028000020220606011104794594204001638080262000110NNN00
9957867WELEDA NUEVA LINEA LIMPIEZA                 Espuma limp.suave x150ml00000000NNWeleda          00030000020220606011104795786704001638500050000110NNN00
9945954WELEDA NUEVA LINEA LIMPIEZA                 Limp.locion x 100 ml    00000000NNWeleda          00027000020220606011104794595404001638080156000110NNN00
9945952WELEDA NUEVA LINEA LIMPIEZA                 Suave leche limp.x 100ml00000000NNWeleda          00027000020220606011104794595204001638080132000110NNN00
9945953WELEDA NUEVA LINEA LIMPIEZA                 tonica loc.x 100ml      00000000NNWeleda          00027000020220606011104794595304001638080149000110NNN00
9945938WELEDA NUEVA LINEA ONAGRA                   Cont.ojos/labios x 10 ml00000000NNWeleda          00035000020220606011104794593804001638086592000110NNN00
9957870WELEDA NUEVA LINEA ONAGRA                   D¡a cr.Redensif. x 30 ml00000000NNWeleda          00035000020220606011104795787004001638506578000110NNN00
9957871WELEDA NUEVA LINEA ONAGRA                   Noche cr.Redensif.x 30ml00000000NNWeleda          00035000020220606011104795787104001638086585000110NNN00
9957872WELEDA NUEVA LINEA ONAGRA                   Serum Redensif. x30ml   00000000NNWeleda          00037000020220606011104795787204001638082481000110NNN00
9945946WELEDA NUEVA LINEA ROSA MOSQUETA            Contorno de ojos x 30 ml00000000NNWeleda          00030000020220606011104794594604001638080088000110NNN00
9945943WELEDA NUEVA LINEA ROSA MOSQUETA            D¡a cr.x 30 ml          00000000NNWeleda          00029500020220606011104794594304001638089654000110NNN00
9945944WELEDA NUEVA LINEA ROSA MOSQUETA            Fluido alisante x 30 ml 00000000NNWeleda          00029500020220606011104794594404001638086875000110NNN00
9945945WELEDA NUEVA LINEA ROSA MOSQUETA            Noche cr.x 30 ml        00000000NNWeleda          00030000020220606011104794594504001638086011000110NNN00
9935628WELEDA TRATAMIENTOS ESPECIFICOS             Cr.p/manos Espino x 50ml00000000NNWeleda          00026000020220606011104793562804001638097499000110NNN00
9957874WELEDA TRATAMIENTOS ESPECIFICOS             S.Food BodyButter x150ml00000000NNWeleda          00033000020220606011104795787404001638526708000110NNN00
9929602WELEDA TRATAMIENTOS ESPECIFICOS             Sani-Pies cr.x 75 ml    00000000NNWeleda          00026000020220606011104792960204001638905305000110NNN00
9947853WELEDA TRATAMIENTOS ESPECIFICOS             Skin Food x 75 ml       00000000NNWeleda          00030000020220606011104794785304001638098595000110NNN00
9957873WELEDA TRATAMIENTOS ESPECIFICOS             SkinFood LipButter x 8ml00000000NNWeleda          00024000020220606011104795787304001638501989000110NNN00
9935456WELEDA TRATAMIENTOS ESPECIFICOS             barro termal x 100 g    00000000NNWeleda          00026000020220606001104793545607798036820800000110NNN00
9923702CREMA DE ORDE¥E NORT                        pote x 150 g            00000000NNNort            00006830020220606001104912370207796755003009000110NNN00
9945489CREMA DE ORDE¥E NORT                        pote x 200 g            00000000NNNort            00008210020220606001104914548907796755000022000130NNN00
9941914CREMA DE ORDE¥E NORT CENTELLA-CAFEINA       pote x 180 g            00000000NNNort            00007530020220606001104914191407796755003085000110NNN00
9940666CREMA DE ORDE¥E NORT CON BABA DE CARACOL    pote x 100 g            00000000NNNort            00007140020220606001104914066607796755003078000110NNN00
9947440CREMA RELAX NORT                            env.c/dosif.x 280 g     00000000NNNort            00006700020220606001104914744007796755000077000110NNN00
9923708EMULSION MILK NORT                          pote x 200 g            00000000NNNort            00006630020220606001104912370807796755003061000110NNN00
9940667GEL POST SOLAR REFRESCANTE NORT             pote x 200 g            00000000NNNort            00006220020220606001104914066707796755003054000110NNN00
9946713KARITENA                                    rostro y cuello cr.x120g00000000NNNort            00007510020220606001104914671307796755000053000110NNN00
9955963AMUCHINA 100%                               bid¢n x 5000 ml         00000000NNIraola          00214819120220606011005695596307798033100592000110NNN00
6091971METFORMINA IRAOLA                           comp.rec.x 30           00030352NNIraola          00006507520220606002005694940207798033100516003010SNN00
6092001METFORMINA IRAOLA 850 LP                    LP 850 mg comp.rec.x 30 00049696NNIraola          00011435320220606002005695145907798033100547003010SNN00
9930127ACTRON                                      caps.gelat.blanda x 10  00006715NNBayer Consumer  00002740020220607001006543012707793640215479001010NNN00
9930128ACTRON                                      caps.gelat.blanda x 20  00011036NNBayer Consumer  00005230020220607001006543012807793640215486002030NNN00
5229911ACTRON 600 RAPIDA ACCION                    caps.gelat.blanda x 10  00013148NNBayer Consumer  00006550020220607002026543403707793640215523001010SNN00
5229912ACTRON 600 RAPIDA ACCION                    caps.gelat.blanda x 20  00026374NNBayer Consumer  00011890020220607002026544163707793640215622002030SNN00
6393971ACTRON FLEX                                 c ps.bl.x 10            00000000NNBayer Consumer  00007530020220607002006545502907793640991960001010NNN00
9958838ACTRON GEL                                  pomo x 50 g             00000000NNBayer Consumer  00010930020220607011006545883807793640992448000110NNN00
9934372ACTRON MUJER RAPIDA ACCION                  400 mg caps.x 10        00006715NNBayer Consumer  00002740020220607001006543437207793640215547001010NNN00
9933449ACTRON PEDIATRICO                           susp.oral x 100 ml      00011034NNBayer Consumer  00004290020220607001006543344907793640215509000110NNN00
9955391ACTRON PEDIATRICO                           susp.oral x 180 ml      00000000NNBayer Consumer  00006370020220607001006545539107793640992011000130NNN00
6051391ACTRON PEDIATRICO 4%                        susp.oral x 100 ml      00018557NNBayer Consumer  00008020020220607002026544670707793640002093000110SNN00
6051392ACTRON PEDIATRICO 4%                        susp.oral x 180 ml      00000000NNBayer Consumer  00014210020220607002006545539207793640992004000130NNN00
9953874ACTRON PLUS                                 c ps.x 8                00000000NNBayer Consumer  00003210020220607001006545387407793640001065000810NNN00
9951966ASPIRINETAS                                 comp.x 28               00000000NNBayer Consumer  00001200020220607001006545196607793640000839002810NNN00
9943571ASPIRINETAS                                 comp.x 98               00000000NNBayer Consumer  00004180020220607001006544357107793640217985009830NNN00
9951967BAYASPIRINA                                 comp.x 30               00017700NNBayer Consumer  00003710020220607001006545196707793640000747003010NNN00
9928475BAYASPIRINA C CALIENTE                      gran.sob.x 24           00000000NNBayer Consumer  00017100020220607001006542847507793640802532002410NNN00
9932529BAYASPIRINA C LIMON 240 MG VIT.C            efer.gran.sob.x 12      00000000NNBayer Consumer  00006150020220607001006543252907793640002673001210NNN00
9932530BAYASPIRINA C LIMON 240 MG VIT.C            efer.gran.sob.x 24      00000000NNBayer Consumer  00012090020220607001006543253007793640002680002430NNN00
9951968BAYASPIRINA FORTE                           comp.x 20               00000000NNBayer Consumer  00003300020220607001006545196807793640000754002010NNN00
0968191BECOZYM                                     grag.x 30               00016850NNBayer Consumer  00006810020220607002026542889407793640016014003010SNN00
4619211BECOZYM NF                                  a.x 6                   00021600NNBayer Consumer  00008710020220607002026542610907793640560036000610SNN00
9949314BEPANTHEN BABY                              pomo x 100 g.           00000000NNBayer Consumer  00016590020220607011006544931407793640004165000120NNN00
9949313BEPANTHEN BABY                              pomo x 30 g.            00000000NNBayer Consumer  00007490020220607011006544931307793640004158000110NNN00
9951747BEROCCA PERFORMANCE                         comp.efer.x 10          00000000NNBayer Consumer  00008120020220607001006545174707793640000280001010NNN00
9951748BEROCCA PERFORMANCE                         comp.efer.x 30          00000000NNBayer Consumer  00019280020220607001006545174807793640000297003030NNN00
9951746BEROCCA PERFORMANCE                         comp.laq.x 30           00000000NNBayer Consumer  00012830020220607001006545174607793640000273003010NNN00
4729521BEROCCA PLUS                                comp.efer.x 10          00000000NNBayer Consumer  00010980020220607002026542670107793640602491001010SNN00
4729522BEROCCA PLUS                                comp.efer.x 30          00000000NNBayer Consumer  00026280020220607002026542670207793640602514003030SNN00
4729601BEROCCA PLUS                                comp.laq.x 30           00000000NNBayer Consumer  00017380020220607002026542670307793640679844003010SNN00
9951969CAFIASPIRINA                                comp.x 30               00000000NNBayer Consumer  00004360020220607001006545196907793640000761003010NNN00
9951970CAFIASPIRINA PLUS                           comp.x 20               00000000NNBayer Consumer  00003710020220607001006545197007793640000778002010NNN00
0886922CAL C VITA                                  comp.efer.x 30          00000000NNBayer Consumer  00015050020220607002026540810207793640679868003030SNN00
2482622CAL C VITA FLUOR                            comp.efer.x 30          00000000NNBayer Consumer  00016830020220607002026542866307793640018445003030SNN00
0885772COBENEXOL FUERTE                            comp.laq.x 30           00043175NNBayer Consumer  00017410020220607002026540762607793640016427003010SNN00
2144292EMPECID                                     cr.x 20 g               00000000NNBayer Consumer  00007020020220607001006540119607793640216018000110NNN00
2384453EMPECID                                     spray x 60 ml           00000000NNBayer Consumer  00008410020220607001006540296607793640216056000110NNN00
9934920EMPECID GYNO 3 DIAS                         caps.vag.x 3            00000000NNBayer Consumer  00008590020220607001006543492007793640215554000310NNN00
9934921EMPECID GYNO 6 DIAS                         caps.vag.x 6            00000000NNBayer Consumer  00009840020220607001006543492107793640215561000610NNN00
9934922EMPECID GYNO CREMA                          cr.x 35 g+6 aplic.desc. 00000000NNBayer Consumer  00010990020220607001006543492207501318691209000110NNN00
9933433EMPECID PIE                                 pomo x 15 g             00000000NNBayer Consumer  00007000020220607001006543343307793640216063000110NNN00
3834561LAROTABE                                    caps.x 30               00000000NNBayer Consumer  00014560020220607002026541498807793640117193003010SNN00
2794151MUPATEN                                     cr.x 20 g               00000000NNBayer Consumer  00004310020220607002026540828907795320004519000110SNN00
9944306PARACETAMOL BAYER                           500 mg comp.x 30        00000000NNBayer Consumer  00004140020220607001006544430607793640992455003010NNN00
9954811REDOXITOS FRUTILLA MASTICABLES              sachets x 25 gomitas    00000000NNBayer Consumer  00007270020220607011006545481107793640004561002510NNN00
9951216REDOXITOS NARANJA MASTICABLES               sachets x 25 gomitas    00000000NNBayer Consumer  00007270020220607001006545121607793640000303002510NNN00
9956903REDOXITOS PLUS                              sachets x 25 gomitas    00000000NNBayer Consumer  00008380020220607001006545690307793640992165002510NNN00
9956193REDOXON                                     Efer.1 g comp.x 10      00000000NNBayer Consumer  00006625020220607001006545619307793640992127001010NNN00
